{
  "contractName": "ERC721Metadata",
  "abi": [
    {
      "inputs": [
        {
          "internalType": "string",
          "name": "newName",
          "type": "string"
        },
        {
          "internalType": "string",
          "name": "newSymbol",
          "type": "string"
        }
      ],
      "stateMutability": "nonpayable",
      "type": "constructor"
    },
    {
      "inputs": [],
      "name": "name",
      "outputs": [
        {
          "internalType": "string",
          "name": "",
          "type": "string"
        }
      ],
      "stateMutability": "view",
      "type": "function"
    },
    {
      "inputs": [],
      "name": "symbol",
      "outputs": [
        {
          "internalType": "string",
          "name": "",
          "type": "string"
        }
      ],
      "stateMutability": "view",
      "type": "function"
    }
  ],
  "bytecode": "0x608060405234801561001057600080fd5b5060405161049538038061049583398101604081905261002f916101d2565b815161004290600090602085019061005e565b50805161005690600190602084019061005e565b505050610289565b82805461006a90610235565b90600052602060002090601f01602090048101928261008c57600085556100d2565b82601f106100a557805160ff19168380011785556100d2565b828001600101855582156100d2579182015b828111156100d25782518255916020019190600101906100b7565b506100de9291506100e2565b5090565b5b808211156100de57600081556001016100e3565b7f4e487b7100000000000000000000000000000000000000000000000000000000600052604160045260246000fd5b600082601f83011261013757600080fd5b81516001604060020a0380821115610151576101516100f7565b604051601f8301601f19908116603f01168101908282118183101715610179576101796100f7565b8160405283815260209250868385880101111561019557600080fd5b600091505b838210156101b7578582018301518183018401529082019061019a565b838211156101c85760008385830101525b9695505050505050565b600080604083850312156101e557600080fd5b82516001604060020a03808211156101fc57600080fd5b61020886838701610126565b9350602085015191508082111561021e57600080fd5b5061022b85828601610126565b9150509250929050565b60028104600182168061024957607f821691505b60208210811415610283577f4e487b7100000000000000000000000000000000000000000000000000000000600052602260045260246000fd5b50919050565b6101fd806102986000396000f3fe608060405234801561001057600080fd5b5060043610610052577c0100000000000000000000000000000000000000000000000000000000600035046306fdde03811461005757806395d89b4114610075575b600080fd5b61005f61007d565b60405161006c919061011e565b60405180910390f35b61005f61010f565b60606000805461008c90610173565b80601f01602080910402602001604051908101604052809291908181526020018280546100b890610173565b80156101055780601f106100da57610100808354040283529160200191610105565b820191906000526020600020905b8154815290600101906020018083116100e857829003601f168201915b5050505050905090565b60606001805461008c90610173565b600060208083528351808285015260005b8181101561014b5785810183015185820160400152820161012f565b8181111561015d576000604083870101525b50601f01601f1916929092016040019392505050565b60028104600182168061018757607f821691505b602082108114156101c1577f4e487b7100000000000000000000000000000000000000000000000000000000600052602260045260246000fd5b5091905056fea2646970667358221220fb760b07f3f9060b868dec0189e8cad6de8451013dd7551ff0408bfcf4f78dd064736f6c634300080b0033",
  "immutableReferences": {},
  "source": "// SPDX-License-Identifier: MIT\npragma solidity >=0.4.22 <0.9.0;\n\ncontract ERC721Metadata {\n    string private _name;\n    string private _symbol;\n\n    constructor(string memory newName, string memory newSymbol) {\n        _name = newName;\n        _symbol = newSymbol;\n    }\n\n    function name() external view returns (string memory) {\n        return _name;\n    }\n\n    function symbol() external view returns (string memory) {\n        return _symbol;\n    }\n}\n",
  "sourcePath": "/Users/ericaska/Desktop/github/playground/playground-nft-marketplace/Lib.Frontend.Web3/src/contracts/ERC721Metadata.sol",
  "compiler": {
    "name": "solc",
    "version": "0.8.11+commit.d7f03943.Emscripten.clang"
  },
  "schemaVersion": "3.4.4",
  "updatedAt": "2022-02-05T11:56:15.601Z",
  "devdoc": {
    "kind": "dev",
    "methods": {},
    "version": 1
  },
  "userdoc": {
    "kind": "user",
    "methods": {},
    "version": 1
  }
}