{
  "contractName": "KryptoBird",
  "abi": [
    {
      "inputs": [],
      "stateMutability": "nonpayable",
      "type": "constructor"
    },
    {
      "anonymous": false,
      "inputs": [
        {
          "indexed": true,
          "internalType": "address",
          "name": "from",
          "type": "address"
        },
        {
          "indexed": true,
          "internalType": "address",
          "name": "to",
          "type": "address"
        },
        {
          "indexed": true,
          "internalType": "uint256",
          "name": "tokenId",
          "type": "uint256"
        }
      ],
      "name": "Transfer",
      "type": "event"
    },
    {
      "inputs": [
        {
          "internalType": "uint256",
          "name": "",
          "type": "uint256"
        }
      ],
      "name": "kryptoBirdz",
      "outputs": [
        {
          "internalType": "string",
          "name": "",
          "type": "string"
        }
      ],
      "stateMutability": "view",
      "type": "function",
      "constant": true
    },
    {
      "inputs": [],
      "name": "name",
      "outputs": [
        {
          "internalType": "string",
          "name": "",
          "type": "string"
        }
      ],
      "stateMutability": "view",
      "type": "function",
      "constant": true
    },
    {
      "inputs": [],
      "name": "symbol",
      "outputs": [
        {
          "internalType": "string",
          "name": "",
          "type": "string"
        }
      ],
      "stateMutability": "view",
      "type": "function",
      "constant": true
    },
    {
      "inputs": [
        {
          "internalType": "string",
          "name": "kryptoBird",
          "type": "string"
        }
      ],
      "name": "mint",
      "outputs": [],
      "stateMutability": "nonpayable",
      "type": "function"
    }
  ],
  "bytecode": "0x608060405234801561001057600080fd5b50604080518082018252600a81527f4b727970746f426972640000000000000000000000000000000000000000000060208083019182528351808501909452600684527f4b424952445a00000000000000000000000000000000000000000000000000009084015281519192918391839161008d916000916100ab565b5080516100a19060019060208401906100ab565b5050505050610198565b8280546100b790610144565b90600052602060002090601f0160209004810192826100d9576000855561011f565b82601f106100f257805160ff191683800117855561011f565b8280016001018555821561011f579182015b8281111561011f578251825591602001919060010190610104565b5061012b92915061012f565b5090565b5b8082111561012b5760008155600101610130565b60028104600182168061015857607f821691505b60208210811415610192577f4e487b7100000000000000000000000000000000000000000000000000000000600052602260045260246000fd5b50919050565b610806806101a76000396000f3fe608060405234801561001057600080fd5b5060043610610068577c0100000000000000000000000000000000000000000000000000000000600035046306fdde03811461006d57806393ab6e561461008b57806395d89b411461009e578063d85d3d27146100a6575b600080fd5b6100756100bb565b60405161008291906105d6565b60405180910390f35b610075610099366004610609565b61014d565b6100756101f9565b6100b96100b4366004610651565b610208565b005b6060600080546100ca90610702565b80601f01602080910402602001604051908101604052809291908181526020018280546100f690610702565b80156101435780601f1061011857610100808354040283529160200191610143565b820191906000526020600020905b81548152906001019060200180831161012657829003601f168201915b5050505050905090565b6004818154811061015d57600080fd5b90600052602060002001600091509050805461017890610702565b80601f01602080910402602001604051908101604052809291908181526020018280546101a490610702565b80156101f15780601f106101c6576101008083540402835291602001916101f1565b820191906000526020600020905b8154815290600101906020018083116101d457829003601f168201915b505050505081565b6060600180546100ca90610702565b6005816040516102189190610756565b9081526040519081900360200190205460ff1615610297576040517f08c379a000000000000000000000000000000000000000000000000000000000815260206004820152601960248201527f6b727970746f4269726420616c7265616479206578697374730000000000000060448201526064015b60405180910390fd5b6004805460018101825560009190915281516102da917f8a35acfbc15ff81a39ae7d344fd709f28e8600b4aa8c65c6b64bfe7fe36bd19b0190602084019061050d565b506004546000906102ed906001906107a1565b90506102f9338261032f565b600160058360405161030b9190610756565b908152604051908190036020019020805491151560ff199092169190911790555050565b73ffffffffffffffffffffffffffffffffffffffff82166103d2576040517f08c379a000000000000000000000000000000000000000000000000000000000815260206004820152603260248201527f4552433732313a206d696e74696e6720746f20746865207a65726f206164647260448201527f657373206973206e6f7420616c6c6f7765640000000000000000000000000000606482015260840161028e565b60008181526002602052604090205473ffffffffffffffffffffffffffffffffffffffff161561045e576040517f08c379a000000000000000000000000000000000000000000000000000000000815260206004820152601c60248201527f4552433732313a20746f6b656e20616c7265616479206d696e74656400000000604482015260640161028e565b6000818152600260209081526040808320805473ffffffffffffffffffffffffffffffffffffffff191673ffffffffffffffffffffffffffffffffffffffff87169081179091558352600390915281208054600192906104bf9084906107b8565b9091555050604051819073ffffffffffffffffffffffffffffffffffffffff8416906000907fddf252ad1be2c89b69c2b068fc378daa952ba7f163c4a11628f55a4df523b3ef908290a45050565b82805461051990610702565b90600052602060002090601f01602090048101928261053b5760008555610581565b82601f1061055457805160ff1916838001178555610581565b82800160010185558215610581579182015b82811115610581578251825591602001919060010190610566565b5061058d929150610591565b5090565b5b8082111561058d5760008155600101610592565b60005b838110156105c15781810151838201526020016105a9565b838111156105d0576000848401525b50505050565b60208152600082518060208401526105f58160408501602087016105a6565b601f01601f19169190910160400192915050565b60006020828403121561061b57600080fd5b5035919050565b7f4e487b7100000000000000000000000000000000000000000000000000000000600052604160045260246000fd5b60006020828403121561066357600080fd5b813567ffffffffffffffff8082111561067b57600080fd5b818401915084601f83011261068f57600080fd5b8135818111156106a1576106a1610622565b604051601f8201601f19908116603f011681019083821181831017156106c9576106c9610622565b816040528281528760208487010111156106e257600080fd5b826020860160208301376000928101602001929092525095945050505050565b60028104600182168061071657607f821691505b60208210811415610750577f4e487b7100000000000000000000000000000000000000000000000000000000600052602260045260246000fd5b50919050565b600082516107688184602087016105a6565b9190910192915050565b7f4e487b7100000000000000000000000000000000000000000000000000000000600052601160045260246000fd5b6000828210156107b3576107b3610772565b500390565b600082198211156107cb576107cb610772565b50019056fea2646970667358221220e9ca9a88ff2a66fc892150b1cca4552c17eed2d3db5c65c16ff835b3fe6ea9da64736f6c634300080b0033",
  "immutableReferences": {},
  "source": "// SPDX-License-Identifier: MIT\npragma solidity >=0.4.22 <0.9.0;\n\nimport './ERC721Connector.sol';\n\ncontract KryptoBird is ERC721Connector {\n\n    //  Array to store nfts\n    string[] public kryptoBirdz;\n\n    mapping(string => bool) _kryptoBirdzExists;\n\n    function mint(string memory kryptoBird) public {\n        // validation if kryptoBird is already added\n        require(!_kryptoBirdzExists[kryptoBird], 'kryptoBird already exists');\n\n        // adding kryptoBird\n        kryptoBirdz.push(kryptoBird);\n\n        // using index of kryptoBird in array as id\n        uint _id = kryptoBirdz.length - 1;\n\n        // saving the token and _tokenOwner\n        _mint(msg.sender, _id);\n\n        // to add a validation to check that kryptoBird is not already added.\n        _kryptoBirdzExists[kryptoBird] = true;\n    }\n\n\n    constructor() ERC721Connector('KryptoBird', 'KBIRDZ') {}\n}\n",
  "sourcePath": "/Users/ericaska/Desktop/github/playground/playground-nft-marketplace/Lib.Frontend.Web3/src/contracts/KryptoBirdz.sol",
  "compiler": {
    "name": "solc",
    "version": "0.8.11+commit.d7f03943.Emscripten.clang"
  },
  "schemaVersion": "3.4.4",
  "updatedAt": "2022-02-05T12:46:25.191Z",
  "networkType": "ethereum",
  "devdoc": {
    "kind": "dev",
    "methods": {},
    "version": 1
  },
  "userdoc": {
    "kind": "user",
    "methods": {},
    "version": 1
  }
}